{
  "_format": "hh-sol-artifact-1",
  "contractName": "Crowdfunding",
  "sourceName": "contracts/Crowdfunding.sol",
  "abi": [
    {
      "inputs": [
        {
          "internalType": "string",
          "name": "_name",
          "type": "string"
        },
        {
          "internalType": "uint256",
          "name": "_targetFunds",
          "type": "uint256"
        },
        {
          "internalType": "uint256",
          "name": "_deadline",
          "type": "uint256"
        }
      ],
      "stateMutability": "nonpayable",
      "type": "constructor"
    },
    {
      "anonymous": false,
      "inputs": [
        {
          "indexed": false,
          "internalType": "address",
          "name": "_funder",
          "type": "address"
        },
        {
          "indexed": false,
          "internalType": "uint256",
          "name": "_amount",
          "type": "uint256"
        }
      ],
      "name": "Funded",
      "type": "event"
    },
    {
      "anonymous": false,
      "inputs": [
        {
          "indexed": false,
          "internalType": "address",
          "name": "_funder",
          "type": "address"
        },
        {
          "indexed": false,
          "internalType": "uint256",
          "name": "_amount",
          "type": "uint256"
        }
      ],
      "name": "FunderWithdraw",
      "type": "event"
    },
    {
      "anonymous": false,
      "inputs": [
        {
          "indexed": false,
          "internalType": "uint256",
          "name": "_amount",
          "type": "uint256"
        }
      ],
      "name": "OwnerWithdraw",
      "type": "event"
    },
    {
      "inputs": [],
      "name": "Withdrawfunder",
      "outputs": [],
      "stateMutability": "nonpayable",
      "type": "function"
    },
    {
      "inputs": [],
      "name": "Withdrawowner",
      "outputs": [],
      "stateMutability": "nonpayable",
      "type": "function"
    },
    {
      "inputs": [],
      "name": "deadline",
      "outputs": [
        {
          "internalType": "uint256",
          "name": "",
          "type": "uint256"
        }
      ],
      "stateMutability": "view",
      "type": "function"
    },
    {
      "inputs": [],
      "name": "fund",
      "outputs": [],
      "stateMutability": "payable",
      "type": "function"
    },
    {
      "inputs": [
        {
          "internalType": "address",
          "name": "",
          "type": "address"
        }
      ],
      "name": "funders",
      "outputs": [
        {
          "internalType": "uint256",
          "name": "",
          "type": "uint256"
        }
      ],
      "stateMutability": "view",
      "type": "function"
    },
    {
      "inputs": [],
      "name": "fundsWithdraw",
      "outputs": [
        {
          "internalType": "bool",
          "name": "",
          "type": "bool"
        }
      ],
      "stateMutability": "view",
      "type": "function"
    },
    {
      "inputs": [],
      "name": "isFundEnabeled",
      "outputs": [
        {
          "internalType": "bool",
          "name": "",
          "type": "bool"
        }
      ],
      "stateMutability": "view",
      "type": "function"
    },
    {
      "inputs": [],
      "name": "isFundsuccess",
      "outputs": [
        {
          "internalType": "bool",
          "name": "",
          "type": "bool"
        }
      ],
      "stateMutability": "view",
      "type": "function"
    },
    {
      "inputs": [],
      "name": "name",
      "outputs": [
        {
          "internalType": "string",
          "name": "",
          "type": "string"
        }
      ],
      "stateMutability": "view",
      "type": "function"
    },
    {
      "inputs": [],
      "name": "owner",
      "outputs": [
        {
          "internalType": "address",
          "name": "",
          "type": "address"
        }
      ],
      "stateMutability": "view",
      "type": "function"
    },
    {
      "inputs": [],
      "name": "targetFunds",
      "outputs": [
        {
          "internalType": "uint256",
          "name": "",
          "type": "uint256"
        }
      ],
      "stateMutability": "view",
      "type": "function"
    }
  ],
  "bytecode": "0x60806040523480156200001157600080fd5b50604051620014173803806200141783398181016040528101906200003791906200026f565b33600460006101000a81548173ffffffffffffffffffffffffffffffffffffffff021916908373ffffffffffffffffffffffffffffffffffffffff16021790555082600390816200008991906200052b565b50816002819055508060018190555050505062000612565b6000604051905090565b600080fd5b600080fd5b600080fd5b600080fd5b6000601f19601f8301169050919050565b7f4e487b7100000000000000000000000000000000000000000000000000000000600052604160045260246000fd5b6200010a82620000bf565b810181811067ffffffffffffffff821117156200012c576200012b620000d0565b5b80604052505050565b600062000141620000a1565b90506200014f8282620000ff565b919050565b600067ffffffffffffffff821115620001725762000171620000d0565b5b6200017d82620000bf565b9050602081019050919050565b60005b83811015620001aa5780820151818401526020810190506200018d565b60008484015250505050565b6000620001cd620001c78462000154565b62000135565b905082815260208101848484011115620001ec57620001eb620000ba565b5b620001f98482856200018a565b509392505050565b600082601f830112620002195762000218620000b5565b5b81516200022b848260208601620001b6565b91505092915050565b6000819050919050565b620002498162000234565b81146200025557600080fd5b50565b60008151905062000269816200023e565b92915050565b6000806000606084860312156200028b576200028a620000ab565b5b600084015167ffffffffffffffff811115620002ac57620002ab620000b0565b5b620002ba8682870162000201565b9350506020620002cd8682870162000258565b9250506040620002e08682870162000258565b9150509250925092565b600081519050919050565b7f4e487b7100000000000000000000000000000000000000000000000000000000600052602260045260246000fd5b600060028204905060018216806200033d57607f821691505b602082108103620003535762000352620002f5565b5b50919050565b60008190508160005260206000209050919050565b60006020601f8301049050919050565b600082821b905092915050565b600060088302620003bd7fffffffffffffffffffffffffffffffffffffffffffffffffffffffffffffffff826200037e565b620003c986836200037e565b95508019841693508086168417925050509392505050565b6000819050919050565b60006200040c62000406620004008462000234565b620003e1565b62000234565b9050919050565b6000819050919050565b6200042883620003eb565b62000440620004378262000413565b8484546200038b565b825550505050565b600090565b6200045762000448565b620004648184846200041d565b505050565b5b818110156200048c57620004806000826200044d565b6001810190506200046a565b5050565b601f821115620004db57620004a58162000359565b620004b0846200036e565b81016020851015620004c0578190505b620004d8620004cf856200036e565b83018262000469565b50505b505050565b600082821c905092915050565b60006200050060001984600802620004e0565b1980831691505092915050565b60006200051b8383620004ed565b9150826002028217905092915050565b6200053682620002ea565b67ffffffffffffffff811115620005525762000551620000d0565b5b6200055e825462000324565b6200056b82828562000490565b600060209050601f831160018114620005a357600084156200058e578287015190505b6200059a85826200050d565b8655506200060a565b601f198416620005b38662000359565b60005b82811015620005dd57848901518255600182019150602085019450602081019050620005b6565b86831015620005fd5784890151620005f9601f891682620004ed565b8355505b6001600288020188555050505b505050505050565b610df580620006226000396000f3fe60806040526004361061009c5760003560e01c806329dcb0cf1161006457806329dcb0cf146101765780638da5cb5b146101a15780639947b537146101cc578063a80a1fd1146101e3578063b60d42881461020e578063d9004b79146102185761009c565b8063031b3677146100a157806306fdde03146100de5780631459e2ad1461010957806317e3c862146101345780632771966b1461015f575b600080fd5b3480156100ad57600080fd5b506100c860048036038101906100c39190610892565b610243565b6040516100d591906108d8565b60405180910390f35b3480156100ea57600080fd5b506100f361025b565b6040516101009190610983565b60405180910390f35b34801561011557600080fd5b5061011e6102e9565b60405161012b91906108d8565b60405180910390f35b34801561014057600080fd5b506101496102ef565b60405161015691906109c0565b60405180910390f35b34801561016b57600080fd5b50610174610323565b005b34801561018257600080fd5b5061018b6104f8565b60405161019891906108d8565b60405180910390f35b3480156101ad57600080fd5b506101b66104fe565b6040516101c391906109ea565b60405180910390f35b3480156101d857600080fd5b506101e1610524565b005b3480156101ef57600080fd5b506101f8610709565b60405161020591906109c0565b60405180910390f35b61021661071c565b005b34801561022457600080fd5b5061022d6107fa565b60405161023a91906109c0565b60405180910390f35b60006020528060005260406000206000915090505481565b6003805461026890610a34565b80601f016020809104026020016040519081016040528092919081815260200182805461029490610a34565b80156102e15780601f106102b6576101008083540402835291602001916102e1565b820191906000526020600020905b8154815290600101906020018083116102c457829003601f168201915b505050505081565b60025481565b600060015442118061030d5750600460149054906101000a900460ff165b1561031b5760009050610320565b600190505b90565b6000151561032f6102ef565b15151480156103495750600015156103456107fa565b1515145b610388576040517f08c379a000000000000000000000000000000000000000000000000000000000815260040161037f90610ab1565b60405180910390fd5b60008060003373ffffffffffffffffffffffffffffffffffffffff1673ffffffffffffffffffffffffffffffffffffffff16815260200190815260200160002054905060003373ffffffffffffffffffffffffffffffffffffffff16826040516103f190610b02565b60006040518083038185875af1925050503d806000811461042e576040519150601f19603f3d011682016040523d82523d6000602084013e610433565b606091505b5050905080610477576040517f08c379a000000000000000000000000000000000000000000000000000000000815260040161046e90610b63565b60405180910390fd5b60008060003373ffffffffffffffffffffffffffffffffffffffff1673ffffffffffffffffffffffffffffffffffffffff168152602001908152602001600020819055507fcc44c493635c55e35a9d509712089a1495f3aef19aa6a60e1d76af2b251a9c8733836040516104ec929190610b83565b60405180910390a15050565b60015481565b600460009054906101000a900473ffffffffffffffffffffffffffffffffffffffff1681565b600460009054906101000a900473ffffffffffffffffffffffffffffffffffffffff1673ffffffffffffffffffffffffffffffffffffffff163373ffffffffffffffffffffffffffffffffffffffff16146105b4576040517f08c379a00000000000000000000000000000000000000000000000000000000081526004016105ab90610bf8565b60405180910390fd5b600115156105c06107fa565b151514610602576040517f08c379a00000000000000000000000000000000000000000000000000000000081526004016105f990610c64565b60405180910390fd5b600047905060003373ffffffffffffffffffffffffffffffffffffffff168260405161062d90610b02565b60006040518083038185875af1925050503d806000811461066a576040519150601f19603f3d011682016040523d82523d6000602084013e61066f565b606091505b50509050806106b3576040517f08c379a00000000000000000000000000000000000000000000000000000000081526004016106aa90610cd0565b60405180910390fd5b6001600460146101000a81548160ff0219169083151502179055507fa20809e697380eaea0fd13bf4d14b00e2ef29559ef361501189d3be2e9b0ec85826040516106fd91906108d8565b60405180910390a15050565b600460149054906101000a900460ff1681565b600115156107286102ef565b15151461076a576040517f08c379a000000000000000000000000000000000000000000000000000000000815260040161076190610d3c565b60405180910390fd5b346000803373ffffffffffffffffffffffffffffffffffffffff1673ffffffffffffffffffffffffffffffffffffffff16815260200190815260200160002060008282546107b89190610d8b565b925050819055507f5af8184bef8e4b45eb9f6ed7734d04da38ced226495548f46e0c8ff8d7d9a52433346040516107f0929190610b83565b60405180910390a1565b6000600254471015806108195750600460149054906101000a900460ff165b15610827576001905061082c565b600090505b90565b600080fd5b600073ffffffffffffffffffffffffffffffffffffffff82169050919050565b600061085f82610834565b9050919050565b61086f81610854565b811461087a57600080fd5b50565b60008135905061088c81610866565b92915050565b6000602082840312156108a8576108a761082f565b5b60006108b68482850161087d565b91505092915050565b6000819050919050565b6108d2816108bf565b82525050565b60006020820190506108ed60008301846108c9565b92915050565b600081519050919050565b600082825260208201905092915050565b60005b8381101561092d578082015181840152602081019050610912565b60008484015250505050565b6000601f19601f8301169050919050565b6000610955826108f3565b61095f81856108fe565b935061096f81856020860161090f565b61097881610939565b840191505092915050565b6000602082019050818103600083015261099d818461094a565b905092915050565b60008115159050919050565b6109ba816109a5565b82525050565b60006020820190506109d560008301846109b1565b92915050565b6109e481610854565b82525050565b60006020820190506109ff60008301846109db565b92915050565b7f4e487b7100000000000000000000000000000000000000000000000000000000600052602260045260246000fd5b60006002820490506001821680610a4c57607f821691505b602082108103610a5f57610a5e610a05565b5b50919050565b7f6e6f7420656c696769626c650000000000000000000000000000000000000000600082015250565b6000610a9b600c836108fe565b9150610aa682610a65565b602082019050919050565b60006020820190508181036000830152610aca81610a8e565b9050919050565b600081905092915050565b50565b6000610aec600083610ad1565b9150610af782610adc565b600082019050919050565b6000610b0d82610adf565b9150819050919050565b7f756e61626c6520746f207472616e736665720000000000000000000000000000600082015250565b6000610b4d6012836108fe565b9150610b5882610b17565b602082019050919050565b60006020820190508181036000830152610b7c81610b40565b9050919050565b6000604082019050610b9860008301856109db565b610ba560208301846108c9565b9392505050565b7f6f776e6572736869702072657175697265640000000000000000000000000000600082015250565b6000610be26012836108fe565b9150610bed82610bac565b602082019050919050565b60006020820190508181036000830152610c1181610bd5565b9050919050565b7f63616e6e6f742077697468647261772100000000000000000000000000000000600082015250565b6000610c4e6010836108fe565b9150610c5982610c18565b602082019050919050565b60006020820190508181036000830152610c7d81610c41565b9050919050565b7f756e61626c6520746f2073656e64210000000000000000000000000000000000600082015250565b6000610cba600f836108fe565b9150610cc582610c84565b602082019050919050565b60006020820190508181036000830152610ce981610cad565b9050919050565b7f46756e64696e67206973206e6f772064697361626c6564210000000000000000600082015250565b6000610d266018836108fe565b9150610d3182610cf0565b602082019050919050565b60006020820190508181036000830152610d5581610d19565b9050919050565b7f4e487b7100000000000000000000000000000000000000000000000000000000600052601160045260246000fd5b6000610d96826108bf565b9150610da1836108bf565b9250828201905080821115610db957610db8610d5c565b5b9291505056fea26469706673582212209b8a03d7f95da2b7eb010fecd0a24b40622b151b8ac25a02a8b7ad6d0433f5a864736f6c63430008130033",
  "linkReferences": {},
  "deployedLinkReferences": {}
}